{
  "_format": "hh-sol-artifact-1",
  "contractName": "Blog",
  "sourceName": "contracts/Blog.sol",
  "abi": [
    {
      "inputs": [
        {
          "internalType": "string",
          "name": "name_",
          "type": "string"
        },
        {
          "internalType": "string",
          "name": "symbol_",
          "type": "string"
        }
      ],
      "stateMutability": "nonpayable",
      "type": "constructor"
    },
    {
      "anonymous": false,
      "inputs": [
        {
          "indexed": true,
          "internalType": "address",
          "name": "owner",
          "type": "address"
        },
        {
          "indexed": true,
          "internalType": "address",
          "name": "approved",
          "type": "address"
        },
        {
          "indexed": true,
          "internalType": "uint256",
          "name": "tokenId",
          "type": "uint256"
        }
      ],
      "name": "Approval",
      "type": "event"
    },
    {
      "anonymous": false,
      "inputs": [
        {
          "indexed": true,
          "internalType": "address",
          "name": "owner",
          "type": "address"
        },
        {
          "indexed": true,
          "internalType": "address",
          "name": "operator",
          "type": "address"
        },
        {
          "indexed": false,
          "internalType": "bool",
          "name": "approved",
          "type": "bool"
        }
      ],
      "name": "ApprovalForAll",
      "type": "event"
    },
    {
      "anonymous": false,
      "inputs": [
        {
          "indexed": true,
          "internalType": "address",
          "name": "from",
          "type": "address"
        },
        {
          "indexed": true,
          "internalType": "address",
          "name": "to",
          "type": "address"
        },
        {
          "indexed": true,
          "internalType": "uint256",
          "name": "tokenId",
          "type": "uint256"
        }
      ],
      "name": "Transfer",
      "type": "event"
    },
    {
      "inputs": [
        {
          "internalType": "address",
          "name": "to",
          "type": "address"
        },
        {
          "internalType": "uint256",
          "name": "tokenId",
          "type": "uint256"
        }
      ],
      "name": "approve",
      "outputs": [],
      "stateMutability": "nonpayable",
      "type": "function"
    },
    {
      "inputs": [
        {
          "internalType": "address",
          "name": "owner",
          "type": "address"
        }
      ],
      "name": "balanceOf",
      "outputs": [
        {
          "internalType": "uint256",
          "name": "",
          "type": "uint256"
        }
      ],
      "stateMutability": "view",
      "type": "function"
    },
    {
      "inputs": [
        {
          "internalType": "uint256",
          "name": "tokenId",
          "type": "uint256"
        }
      ],
      "name": "getApproved",
      "outputs": [
        {
          "internalType": "address",
          "name": "",
          "type": "address"
        }
      ],
      "stateMutability": "view",
      "type": "function"
    },
    {
      "inputs": [
        {
          "internalType": "address",
          "name": "owner",
          "type": "address"
        },
        {
          "internalType": "address",
          "name": "operator",
          "type": "address"
        }
      ],
      "name": "isApprovedForAll",
      "outputs": [
        {
          "internalType": "bool",
          "name": "",
          "type": "bool"
        }
      ],
      "stateMutability": "view",
      "type": "function"
    },
    {
      "inputs": [],
      "name": "name",
      "outputs": [
        {
          "internalType": "string",
          "name": "",
          "type": "string"
        }
      ],
      "stateMutability": "view",
      "type": "function"
    },
    {
      "inputs": [
        {
          "internalType": "uint256",
          "name": "index",
          "type": "uint256"
        },
        {
          "internalType": "bool",
          "name": "mode",
          "type": "bool"
        }
      ],
      "name": "ownedChangeMode",
      "outputs": [],
      "stateMutability": "nonpayable",
      "type": "function"
    },
    {
      "inputs": [
        {
          "internalType": "string",
          "name": "uri",
          "type": "string"
        },
        {
          "internalType": "bool",
          "name": "mode",
          "type": "bool"
        }
      ],
      "name": "ownedMint",
      "outputs": [],
      "stateMutability": "nonpayable",
      "type": "function"
    },
    {
      "inputs": [
        {
          "internalType": "uint256",
          "name": "index",
          "type": "uint256"
        }
      ],
      "name": "ownedTokenURI",
      "outputs": [
        {
          "internalType": "string",
          "name": "",
          "type": "string"
        },
        {
          "internalType": "bool",
          "name": "",
          "type": "bool"
        }
      ],
      "stateMutability": "view",
      "type": "function"
    },
    {
      "inputs": [],
      "name": "ownedTotalSupply",
      "outputs": [
        {
          "internalType": "uint256",
          "name": "",
          "type": "uint256"
        }
      ],
      "stateMutability": "view",
      "type": "function"
    },
    {
      "inputs": [
        {
          "internalType": "uint256",
          "name": "tokenId",
          "type": "uint256"
        }
      ],
      "name": "ownerOf",
      "outputs": [
        {
          "internalType": "address",
          "name": "",
          "type": "address"
        }
      ],
      "stateMutability": "view",
      "type": "function"
    },
    {
      "inputs": [
        {
          "internalType": "address",
          "name": "from",
          "type": "address"
        },
        {
          "internalType": "address",
          "name": "to",
          "type": "address"
        },
        {
          "internalType": "uint256",
          "name": "tokenId",
          "type": "uint256"
        }
      ],
      "name": "safeTransferFrom",
      "outputs": [],
      "stateMutability": "nonpayable",
      "type": "function"
    },
    {
      "inputs": [
        {
          "internalType": "address",
          "name": "from",
          "type": "address"
        },
        {
          "internalType": "address",
          "name": "to",
          "type": "address"
        },
        {
          "internalType": "uint256",
          "name": "tokenId",
          "type": "uint256"
        },
        {
          "internalType": "bytes",
          "name": "data",
          "type": "bytes"
        }
      ],
      "name": "safeTransferFrom",
      "outputs": [],
      "stateMutability": "nonpayable",
      "type": "function"
    },
    {
      "inputs": [
        {
          "internalType": "address",
          "name": "operator",
          "type": "address"
        },
        {
          "internalType": "bool",
          "name": "approved",
          "type": "bool"
        }
      ],
      "name": "setApprovalForAll",
      "outputs": [],
      "stateMutability": "nonpayable",
      "type": "function"
    },
    {
      "inputs": [
        {
          "internalType": "bytes4",
          "name": "interfaceId",
          "type": "bytes4"
        }
      ],
      "name": "supportsInterface",
      "outputs": [
        {
          "internalType": "bool",
          "name": "",
          "type": "bool"
        }
      ],
      "stateMutability": "view",
      "type": "function"
    },
    {
      "inputs": [],
      "name": "symbol",
      "outputs": [
        {
          "internalType": "string",
          "name": "",
          "type": "string"
        }
      ],
      "stateMutability": "view",
      "type": "function"
    },
    {
      "inputs": [
        {
          "internalType": "uint256",
          "name": "index",
          "type": "uint256"
        }
      ],
      "name": "tokenByIndex",
      "outputs": [
        {
          "internalType": "uint256",
          "name": "",
          "type": "uint256"
        }
      ],
      "stateMutability": "view",
      "type": "function"
    },
    {
      "inputs": [
        {
          "internalType": "address",
          "name": "owner",
          "type": "address"
        },
        {
          "internalType": "uint256",
          "name": "index",
          "type": "uint256"
        }
      ],
      "name": "tokenOfOwnerByIndex",
      "outputs": [
        {
          "internalType": "uint256",
          "name": "",
          "type": "uint256"
        }
      ],
      "stateMutability": "view",
      "type": "function"
    },
    {
      "inputs": [
        {
          "internalType": "uint256",
          "name": "tokenId",
          "type": "uint256"
        }
      ],
      "name": "tokenURI",
      "outputs": [
        {
          "internalType": "string",
          "name": "",
          "type": "string"
        }
      ],
      "stateMutability": "view",
      "type": "function"
    },
    {
      "inputs": [],
      "name": "totalSupply",
      "outputs": [
        {
          "internalType": "uint256",
          "name": "",
          "type": "uint256"
        }
      ],
      "stateMutability": "view",
      "type": "function"
    },
    {
      "inputs": [
        {
          "internalType": "address",
          "name": "from",
          "type": "address"
        },
        {
          "internalType": "address",
          "name": "to",
          "type": "address"
        },
        {
          "internalType": "uint256",
          "name": "tokenId",
          "type": "uint256"
        }
      ],
      "name": "transferFrom",
      "outputs": [],
      "stateMutability": "nonpayable",
      "type": "function"
    },
    {
      "inputs": [
        {
          "internalType": "uint256",
          "name": "index",
          "type": "uint256"
        }
      ],
      "name": "visibleTokenURI",
      "outputs": [
        {
          "internalType": "string",
          "name": "",
          "type": "string"
        },
        {
          "internalType": "uint256",
          "name": "",
          "type": "uint256"
        },
        {
          "internalType": "bool",
          "name": "",
          "type": "bool"
        }
      ],
      "stateMutability": "view",
      "type": "function"
    }
  ],
  "bytecode": "0x60806040523480156200001157600080fd5b5060405162003f2238038062003f228339818101604052810190620000379190620001fa565b818181600090816200004a9190620004ca565b5080600190816200005c9190620004ca565b5050505050620005b1565b6000604051905090565b600080fd5b600080fd5b600080fd5b600080fd5b6000601f19601f8301169050919050565b7f4e487b7100000000000000000000000000000000000000000000000000000000600052604160045260246000fd5b620000d08262000085565b810181811067ffffffffffffffff82111715620000f257620000f162000096565b5b80604052505050565b60006200010762000067565b9050620001158282620000c5565b919050565b600067ffffffffffffffff82111562000138576200013762000096565b5b620001438262000085565b9050602081019050919050565b60005b838110156200017057808201518184015260208101905062000153565b60008484015250505050565b6000620001936200018d846200011a565b620000fb565b905082815260208101848484011115620001b257620001b162000080565b5b620001bf84828562000150565b509392505050565b600082601f830112620001df57620001de6200007b565b5b8151620001f18482602086016200017c565b91505092915050565b6000806040838503121562000214576200021362000071565b5b600083015167ffffffffffffffff81111562000235576200023462000076565b5b6200024385828601620001c7565b925050602083015167ffffffffffffffff81111562000267576200026662000076565b5b6200027585828601620001c7565b9150509250929050565b600081519050919050565b7f4e487b7100000000000000000000000000000000000000000000000000000000600052602260045260246000fd5b60006002820490506001821680620002d257607f821691505b602082108103620002e857620002e76200028a565b5b50919050565b60008190508160005260206000209050919050565b60006020601f8301049050919050565b600082821b905092915050565b600060088302620003527fffffffffffffffffffffffffffffffffffffffffffffffffffffffffffffffff8262000313565b6200035e868362000313565b95508019841693508086168417925050509392505050565b6000819050919050565b6000819050919050565b6000620003ab620003a56200039f8462000376565b62000380565b62000376565b9050919050565b6000819050919050565b620003c7836200038a565b620003df620003d682620003b2565b84845462000320565b825550505050565b600090565b620003f6620003e7565b62000403818484620003bc565b505050565b5b818110156200042b576200041f600082620003ec565b60018101905062000409565b5050565b601f8211156200047a576200044481620002ee565b6200044f8462000303565b810160208510156200045f578190505b620004776200046e8562000303565b83018262000408565b50505b505050565b600082821c905092915050565b60006200049f600019846008026200047f565b1980831691505092915050565b6000620004ba83836200048c565b9150826002028217905092915050565b620004d5826200027f565b67ffffffffffffffff811115620004f157620004f062000096565b5b620004fd8254620002b9565b6200050a8282856200042f565b600060209050601f8311600181146200054257600084156200052d578287015190505b620005398582620004ac565b865550620005a9565b601f1984166200055286620002ee565b60005b828110156200057c5784890151825560018201915060208501945060208101905062000555565b868310156200059c578489015162000598601f8916826200048c565b8355505b6001600288020188555050505b505050505050565b61396180620005c16000396000f3fe608060405234801561001057600080fd5b50600436106101375760003560e01c80634f6ccce7116100b8578063a22cb4651161007c578063a22cb46514610376578063b7fa8bdc14610392578063b88d4fde146103ae578063c87b56dd146103ca578063e985e9c5146103fa578063edcc4a7c1461042a57610137565b80634f6ccce7146102965780636352211e146102c6578063636908f3146102f657806370a082311461032857806395d89b411461035857610137565b806318160ddd116100ff57806318160ddd146101f457806323b872dd146102125780632f745c591461022e57806339ca778c1461025e57806342842e0e1461027a57610137565b806301ffc9a71461013c57806306fdde031461016c578063081812fc1461018a578063095ea7b3146101ba578063140b5627146101d6575b600080fd5b6101566004803603810190610151919061248b565b61045b565b60405161016391906124d3565b60405180910390f35b61017461046d565b604051610181919061257e565b60405180910390f35b6101a4600480360381019061019f91906125d6565b6104ff565b6040516101b19190612644565b60405180910390f35b6101d460048036038101906101cf919061268b565b610545565b005b6101de61065c565b6040516101eb91906126da565b60405180910390f35b6101fc61066c565b60405161020991906126da565b60405180910390f35b61022c600480360381019061022791906126f5565b61067b565b005b6102486004803603810190610243919061268b565b6106db565b60405161025591906126da565b60405180910390f35b61027860048036038101906102739190612774565b610780565b005b610294600480360381019061028f91906126f5565b6107be565b005b6102b060048036038101906102ab91906125d6565b6107de565b6040516102bd91906126da565b60405180910390f35b6102e060048036038101906102db91906125d6565b61084f565b6040516102ed9190612644565b60405180910390f35b610310600480360381019061030b91906125d6565b6108d5565b60405161031f939291906127b4565b60405180910390f35b610342600480360381019061033d91906127f2565b6109d1565b60405161034f91906126da565b60405180910390f35b610360610a88565b60405161036d919061257e565b60405180910390f35b610390600480360381019061038b919061281f565b610b1a565b005b6103ac60048036038101906103a79190612994565b610b30565b005b6103c860048036038101906103c39190612a91565b610b80565b005b6103e460048036038101906103df91906125d6565b610be2565b6040516103f1919061257e565b60405180910390f35b610414600480360381019061040f9190612b14565b610c92565b60405161042191906124d3565b60405180910390f35b610444600480360381019061043f91906125d6565b610d26565b604051610452929190612b54565b60405180910390f35b600061046682610d6b565b9050919050565b60606000805461047c90612bb3565b80601f01602080910402602001604051908101604052809291908181526020018280546104a890612bb3565b80156104f55780601f106104ca576101008083540402835291602001916104f5565b820191906000526020600020905b8154815290600101906020018083116104d857829003601f168201915b5050505050905090565b600061050a82610de5565b6004600083815260200190815260200160002060009054906101000a900473ffffffffffffffffffffffffffffffffffffffff169050919050565b60006105508261084f565b90508073ffffffffffffffffffffffffffffffffffffffff168373ffffffffffffffffffffffffffffffffffffffff16036105c0576040517f08c379a00000000000000000000000000000000000000000000000000000000081526004016105b790612c56565b60405180910390fd5b8073ffffffffffffffffffffffffffffffffffffffff166105df610e30565b73ffffffffffffffffffffffffffffffffffffffff16148061060e575061060d81610608610e30565b610c92565b5b61064d576040517f08c379a000000000000000000000000000000000000000000000000000000000815260040161064490612ce8565b60405180910390fd5b6106578383610e38565b505050565b6000610667336109d1565b905090565b6000610676610ef1565b905090565b61068c610686610e30565b82610efe565b6106cb576040517f08c379a00000000000000000000000000000000000000000000000000000000081526004016106c290612d7a565b60405180910390fd5b6106d6838383610f93565b505050565b60006106e6836109d1565b8210610727576040517f08c379a000000000000000000000000000000000000000000000000000000000815260040161071e90612e0c565b60405180910390fd5b600760008473ffffffffffffffffffffffffffffffffffffffff1673ffffffffffffffffffffffffffffffffffffffff168152602001908152602001600020600083815260200190815260200160002054905092915050565b600061078c33846106db565b905081600b600083815260200190815260200160002060006101000a81548160ff021916908315150217905550505050565b6107d983838360405180602001604052806000815250610b80565b505050565b60006107e8610ef1565b8210610829576040517f08c379a000000000000000000000000000000000000000000000000000000000815260040161082090612e9e565b60405180910390fd5b6009828154811061083d5761083c612ebe565b5b90600052602060002001549050919050565b60008061085b8361128c565b9050600073ffffffffffffffffffffffffffffffffffffffff168173ffffffffffffffffffffffffffffffffffffffff16036108cc576040517f08c379a00000000000000000000000000000000000000000000000000000000081526004016108c390612f39565b60405180910390fd5b80915050919050565b606060008060006108e461066c565b90505b808510156109ad5760006108fa866107de565b9050600b600082815260200190815260200160002060009054906101000a900460ff168061095b575061092c8161084f565b73ffffffffffffffffffffffffffffffffffffffff163373ffffffffffffffffffffffffffffffffffffffff16145b156109985761096981610be2565b86600b600084815260200190815260200160002060009054906101000a900460ff1694509450945050506109ca565b506001856109a69190612f88565b94506108e7565b846001604051806020016040528060008152509190935093509350505b9193909250565b60008073ffffffffffffffffffffffffffffffffffffffff168273ffffffffffffffffffffffffffffffffffffffff1603610a41576040517f08c379a0000000000000000000000000000000000000000000000000000000008152600401610a389061302e565b60405180910390fd5b600360008373ffffffffffffffffffffffffffffffffffffffff1673ffffffffffffffffffffffffffffffffffffffff168152602001908152602001600020549050919050565b606060018054610a9790612bb3565b80601f0160208091040260200160405190810160405280929190818152602001828054610ac390612bb3565b8015610b105780601f10610ae557610100808354040283529160200191610b10565b820191906000526020600020905b815481529060010190602001808311610af357829003601f168201915b5050505050905090565b610b2c610b25610e30565b83836112c9565b5050565b6000610b3a61066c565b9050610b463382611435565b610b508184611453565b81600b600083815260200190815260200160002060006101000a81548160ff021916908315150217905550505050565b610b91610b8b610e30565b83610efe565b610bd0576040517f08c379a0000000000000000000000000000000000000000000000000000000008152600401610bc790612d7a565b60405180910390fd5b610bdc848484846114c0565b50505050565b6060600b600083815260200190815260200160002060009054906101000a900460ff1680610c435750610c148261084f565b73ffffffffffffffffffffffffffffffffffffffff163373ffffffffffffffffffffffffffffffffffffffff16145b610c82576040517f08c379a0000000000000000000000000000000000000000000000000000000008152600401610c799061309a565b60405180910390fd5b610c8b8261151c565b9050919050565b6000600560008473ffffffffffffffffffffffffffffffffffffffff1673ffffffffffffffffffffffffffffffffffffffff16815260200190815260200160002060008373ffffffffffffffffffffffffffffffffffffffff1673ffffffffffffffffffffffffffffffffffffffff16815260200190815260200160002060009054906101000a900460ff16905092915050565b6060600080610d3533856106db565b9050610d4081610be2565b600b600083815260200190815260200160002060009054906101000a900460ff169250925050915091565b60007f780e9d63000000000000000000000000000000000000000000000000000000007bffffffffffffffffffffffffffffffffffffffffffffffffffffffff1916827bffffffffffffffffffffffffffffffffffffffffffffffffffffffff19161480610dde5750610ddd8261162e565b5b9050919050565b610dee81611710565b610e2d576040517f08c379a0000000000000000000000000000000000000000000000000000000008152600401610e2490612f39565b60405180910390fd5b50565b600033905090565b816004600083815260200190815260200160002060006101000a81548173ffffffffffffffffffffffffffffffffffffffff021916908373ffffffffffffffffffffffffffffffffffffffff160217905550808273ffffffffffffffffffffffffffffffffffffffff16610eab8361084f565b73ffffffffffffffffffffffffffffffffffffffff167f8c5be1e5ebec7d5bd14f71427d1e84f3dd0314c0f7b2291e5b200ac8c7c3b92560405160405180910390a45050565b6000600980549050905090565b600080610f0a8361084f565b90508073ffffffffffffffffffffffffffffffffffffffff168473ffffffffffffffffffffffffffffffffffffffff161480610f4c5750610f4b8185610c92565b5b80610f8a57508373ffffffffffffffffffffffffffffffffffffffff16610f72846104ff565b73ffffffffffffffffffffffffffffffffffffffff16145b91505092915050565b8273ffffffffffffffffffffffffffffffffffffffff16610fb38261084f565b73ffffffffffffffffffffffffffffffffffffffff1614611009576040517f08c379a00000000000000000000000000000000000000000000000000000000081526004016110009061312c565b60405180910390fd5b600073ffffffffffffffffffffffffffffffffffffffff168273ffffffffffffffffffffffffffffffffffffffff1603611078576040517f08c379a000000000000000000000000000000000000000000000000000000000815260040161106f906131be565b60405180910390fd5b6110858383836001611751565b8273ffffffffffffffffffffffffffffffffffffffff166110a58261084f565b73ffffffffffffffffffffffffffffffffffffffff16146110fb576040517f08c379a00000000000000000000000000000000000000000000000000000000081526004016110f29061312c565b60405180910390fd5b6004600082815260200190815260200160002060006101000a81549073ffffffffffffffffffffffffffffffffffffffff02191690556001600360008573ffffffffffffffffffffffffffffffffffffffff1673ffffffffffffffffffffffffffffffffffffffff168152602001908152602001600020600082825403925050819055506001600360008473ffffffffffffffffffffffffffffffffffffffff1673ffffffffffffffffffffffffffffffffffffffff16815260200190815260200160002060008282540192505081905550816002600083815260200190815260200160002060006101000a81548173ffffffffffffffffffffffffffffffffffffffff021916908373ffffffffffffffffffffffffffffffffffffffff160217905550808273ffffffffffffffffffffffffffffffffffffffff168473ffffffffffffffffffffffffffffffffffffffff167fddf252ad1be2c89b69c2b068fc378daa952ba7f163c4a11628f55a4df523b3ef60405160405180910390a46112878383836001611763565b505050565b60006002600083815260200190815260200160002060009054906101000a900473ffffffffffffffffffffffffffffffffffffffff169050919050565b8173ffffffffffffffffffffffffffffffffffffffff168373ffffffffffffffffffffffffffffffffffffffff1603611337576040517f08c379a000000000000000000000000000000000000000000000000000000000815260040161132e9061322a565b60405180910390fd5b80600560008573ffffffffffffffffffffffffffffffffffffffff1673ffffffffffffffffffffffffffffffffffffffff16815260200190815260200160002060008473ffffffffffffffffffffffffffffffffffffffff1673ffffffffffffffffffffffffffffffffffffffff16815260200190815260200160002060006101000a81548160ff0219169083151502179055508173ffffffffffffffffffffffffffffffffffffffff168373ffffffffffffffffffffffffffffffffffffffff167f17307eab39ab6107e8899845ad3d59bd9653f200f220920489ca2b5937696c318360405161142891906124d3565b60405180910390a3505050565b61144f828260405180602001604052806000815250611769565b5050565b61145c82611710565b61149b576040517f08c379a0000000000000000000000000000000000000000000000000000000008152600401611492906132bc565b60405180910390fd5b806006600084815260200190815260200160002090816114bb9190613488565b505050565b6114cb848484610f93565b6114d7848484846117c4565b611516576040517f08c379a000000000000000000000000000000000000000000000000000000000815260040161150d906135cc565b60405180910390fd5b50505050565b606061152782610de5565b600060066000848152602001908152602001600020805461154790612bb3565b80601f016020809104026020016040519081016040528092919081815260200182805461157390612bb3565b80156115c05780601f10611595576101008083540402835291602001916115c0565b820191906000526020600020905b8154815290600101906020018083116115a357829003601f168201915b5050505050905060006115d161194b565b905060008151036115e6578192505050611629565b60008251111561161b578082604051602001611603929190613628565b60405160208183030381529060405292505050611629565b61162484611962565b925050505b919050565b60007f80ac58cd000000000000000000000000000000000000000000000000000000007bffffffffffffffffffffffffffffffffffffffffffffffffffffffff1916827bffffffffffffffffffffffffffffffffffffffffffffffffffffffff191614806116f957507f5b5e139f000000000000000000000000000000000000000000000000000000007bffffffffffffffffffffffffffffffffffffffffffffffffffffffff1916827bffffffffffffffffffffffffffffffffffffffffffffffffffffffff1916145b806117095750611708826119ca565b5b9050919050565b60008073ffffffffffffffffffffffffffffffffffffffff166117328361128c565b73ffffffffffffffffffffffffffffffffffffffff1614159050919050565b61175d84848484611a34565b50505050565b50505050565b6117738383611b92565b61178060008484846117c4565b6117bf576040517f08c379a00000000000000000000000000000000000000000000000000000000081526004016117b6906135cc565b60405180910390fd5b505050565b60006117e58473ffffffffffffffffffffffffffffffffffffffff16611daf565b1561193e578373ffffffffffffffffffffffffffffffffffffffff1663150b7a0261180e610e30565b8786866040518563ffffffff1660e01b815260040161183094939291906136a1565b6020604051808303816000875af192505050801561186c57506040513d601f19601f820116820180604052508101906118699190613702565b60015b6118ee573d806000811461189c576040519150601f19603f3d011682016040523d82523d6000602084013e6118a1565b606091505b5060008151036118e6576040517f08c379a00000000000000000000000000000000000000000000000000000000081526004016118dd906135cc565b60405180910390fd5b805181602001fd5b63150b7a0260e01b7bffffffffffffffffffffffffffffffffffffffffffffffffffffffff1916817bffffffffffffffffffffffffffffffffffffffffffffffffffffffff191614915050611943565b600190505b949350505050565b606060405180602001604052806000815250905090565b606061196d82610de5565b600061197761194b565b9050600081511161199757604051806020016040528060008152506119c2565b806119a184611dd2565b6040516020016119b2929190613628565b6040516020818303038152906040525b915050919050565b60007f01ffc9a7000000000000000000000000000000000000000000000000000000007bffffffffffffffffffffffffffffffffffffffffffffffffffffffff1916827bffffffffffffffffffffffffffffffffffffffffffffffffffffffff1916149050919050565b611a4084848484611ea0565b6001811115611a84576040517f08c379a0000000000000000000000000000000000000000000000000000000008152600401611a7b906137a1565b60405180910390fd5b6000829050600073ffffffffffffffffffffffffffffffffffffffff168573ffffffffffffffffffffffffffffffffffffffff1603611acb57611ac681611fc6565b611b0a565b8373ffffffffffffffffffffffffffffffffffffffff168573ffffffffffffffffffffffffffffffffffffffff1614611b0957611b08858261200f565b5b5b600073ffffffffffffffffffffffffffffffffffffffff168473ffffffffffffffffffffffffffffffffffffffff1603611b4c57611b478161217c565b611b8b565b8473ffffffffffffffffffffffffffffffffffffffff168473ffffffffffffffffffffffffffffffffffffffff1614611b8a57611b89848261224d565b5b5b5050505050565b600073ffffffffffffffffffffffffffffffffffffffff168273ffffffffffffffffffffffffffffffffffffffff1603611c01576040517f08c379a0000000000000000000000000000000000000000000000000000000008152600401611bf89061380d565b60405180910390fd5b611c0a81611710565b15611c4a576040517f08c379a0000000000000000000000000000000000000000000000000000000008152600401611c4190613879565b60405180910390fd5b611c58600083836001611751565b611c6181611710565b15611ca1576040517f08c379a0000000000000000000000000000000000000000000000000000000008152600401611c9890613879565b60405180910390fd5b6001600360008473ffffffffffffffffffffffffffffffffffffffff1673ffffffffffffffffffffffffffffffffffffffff16815260200190815260200160002060008282540192505081905550816002600083815260200190815260200160002060006101000a81548173ffffffffffffffffffffffffffffffffffffffff021916908373ffffffffffffffffffffffffffffffffffffffff160217905550808273ffffffffffffffffffffffffffffffffffffffff16600073ffffffffffffffffffffffffffffffffffffffff167fddf252ad1be2c89b69c2b068fc378daa952ba7f163c4a11628f55a4df523b3ef60405160405180910390a4611dab600083836001611763565b5050565b6000808273ffffffffffffffffffffffffffffffffffffffff163b119050919050565b606060006001611de1846122cc565b01905060008167ffffffffffffffff811115611e0057611dff612869565b5b6040519080825280601f01601f191660200182016040528015611e325781602001600182028036833780820191505090505b509050600082602001820190505b600115611e95578080600190039150507f3031323334353637383961626364656600000000000000000000000000000000600a86061a8153600a8581611e8957611e88613899565b5b04945060008503611e40575b819350505050919050565b6001811115611fc057600073ffffffffffffffffffffffffffffffffffffffff168473ffffffffffffffffffffffffffffffffffffffff1614611f345780600360008673ffffffffffffffffffffffffffffffffffffffff1673ffffffffffffffffffffffffffffffffffffffff1681526020019081526020016000206000828254611f2c91906138c8565b925050819055505b600073ffffffffffffffffffffffffffffffffffffffff168373ffffffffffffffffffffffffffffffffffffffff1614611fbf5780600360008573ffffffffffffffffffffffffffffffffffffffff1673ffffffffffffffffffffffffffffffffffffffff1681526020019081526020016000206000828254611fb79190612f88565b925050819055505b5b50505050565b600980549050600a600083815260200190815260200160002081905550600981908060018154018082558091505060019003906000526020600020016000909190919091505550565b6000600161201c846109d1565b61202691906138c8565b905060006008600084815260200190815260200160002054905081811461210b576000600760008673ffffffffffffffffffffffffffffffffffffffff1673ffffffffffffffffffffffffffffffffffffffff168152602001908152602001600020600084815260200190815260200160002054905080600760008773ffffffffffffffffffffffffffffffffffffffff1673ffffffffffffffffffffffffffffffffffffffff168152602001908152602001600020600084815260200190815260200160002081905550816008600083815260200190815260200160002081905550505b6008600084815260200190815260200160002060009055600760008573ffffffffffffffffffffffffffffffffffffffff1673ffffffffffffffffffffffffffffffffffffffff16815260200190815260200160002060008381526020019081526020016000206000905550505050565b6000600160098054905061219091906138c8565b90506000600a60008481526020019081526020016000205490506000600983815481106121c0576121bf612ebe565b5b9060005260206000200154905080600983815481106121e2576121e1612ebe565b5b906000526020600020018190555081600a600083815260200190815260200160002081905550600a6000858152602001908152602001600020600090556009805480612231576122306138fc565b5b6001900381819060005260206000200160009055905550505050565b6000612258836109d1565b905081600760008573ffffffffffffffffffffffffffffffffffffffff1673ffffffffffffffffffffffffffffffffffffffff168152602001908152602001600020600083815260200190815260200160002081905550806008600084815260200190815260200160002081905550505050565b600080600090507a184f03e93ff9f4daa797ed6e38ed64bf6a1f010000000000000000831061232a577a184f03e93ff9f4daa797ed6e38ed64bf6a1f01000000000000000083816123205761231f613899565b5b0492506040810190505b6d04ee2d6d415b85acef81000000008310612367576d04ee2d6d415b85acef8100000000838161235d5761235c613899565b5b0492506020810190505b662386f26fc10000831061239657662386f26fc10000838161238c5761238b613899565b5b0492506010810190505b6305f5e10083106123bf576305f5e10083816123b5576123b4613899565b5b0492506008810190505b61271083106123e45761271083816123da576123d9613899565b5b0492506004810190505b6064831061240757606483816123fd576123fc613899565b5b0492506002810190505b600a8310612416576001810190505b80915050919050565b6000604051905090565b600080fd5b600080fd5b60007fffffffff0000000000000000000000000000000000000000000000000000000082169050919050565b61246881612433565b811461247357600080fd5b50565b6000813590506124858161245f565b92915050565b6000602082840312156124a1576124a0612429565b5b60006124af84828501612476565b91505092915050565b60008115159050919050565b6124cd816124b8565b82525050565b60006020820190506124e860008301846124c4565b92915050565b600081519050919050565b600082825260208201905092915050565b60005b8381101561252857808201518184015260208101905061250d565b60008484015250505050565b6000601f19601f8301169050919050565b6000612550826124ee565b61255a81856124f9565b935061256a81856020860161250a565b61257381612534565b840191505092915050565b600060208201905081810360008301526125988184612545565b905092915050565b6000819050919050565b6125b3816125a0565b81146125be57600080fd5b50565b6000813590506125d0816125aa565b92915050565b6000602082840312156125ec576125eb612429565b5b60006125fa848285016125c1565b91505092915050565b600073ffffffffffffffffffffffffffffffffffffffff82169050919050565b600061262e82612603565b9050919050565b61263e81612623565b82525050565b60006020820190506126596000830184612635565b92915050565b61266881612623565b811461267357600080fd5b50565b6000813590506126858161265f565b92915050565b600080604083850312156126a2576126a1612429565b5b60006126b085828601612676565b92505060206126c1858286016125c1565b9150509250929050565b6126d4816125a0565b82525050565b60006020820190506126ef60008301846126cb565b92915050565b60008060006060848603121561270e5761270d612429565b5b600061271c86828701612676565b935050602061272d86828701612676565b925050604061273e868287016125c1565b9150509250925092565b612751816124b8565b811461275c57600080fd5b50565b60008135905061276e81612748565b92915050565b6000806040838503121561278b5761278a612429565b5b6000612799858286016125c1565b92505060206127aa8582860161275f565b9150509250929050565b600060608201905081810360008301526127ce8186612545565b90506127dd60208301856126cb565b6127ea60408301846124c4565b949350505050565b60006020828403121561280857612807612429565b5b600061281684828501612676565b91505092915050565b6000806040838503121561283657612835612429565b5b600061284485828601612676565b92505060206128558582860161275f565b9150509250929050565b600080fd5b600080fd5b7f4e487b7100000000000000000000000000000000000000000000000000000000600052604160045260246000fd5b6128a182612534565b810181811067ffffffffffffffff821117156128c0576128bf612869565b5b80604052505050565b60006128d361241f565b90506128df8282612898565b919050565b600067ffffffffffffffff8211156128ff576128fe612869565b5b61290882612534565b9050602081019050919050565b82818337600083830152505050565b6000612937612932846128e4565b6128c9565b90508281526020810184848401111561295357612952612864565b5b61295e848285612915565b509392505050565b600082601f83011261297b5761297a61285f565b5b813561298b848260208601612924565b91505092915050565b600080604083850312156129ab576129aa612429565b5b600083013567ffffffffffffffff8111156129c9576129c861242e565b5b6129d585828601612966565b92505060206129e68582860161275f565b9150509250929050565b600067ffffffffffffffff821115612a0b57612a0a612869565b5b612a1482612534565b9050602081019050919050565b6000612a34612a2f846129f0565b6128c9565b905082815260208101848484011115612a5057612a4f612864565b5b612a5b848285612915565b509392505050565b600082601f830112612a7857612a7761285f565b5b8135612a88848260208601612a21565b91505092915050565b60008060008060808587031215612aab57612aaa612429565b5b6000612ab987828801612676565b9450506020612aca87828801612676565b9350506040612adb878288016125c1565b925050606085013567ffffffffffffffff811115612afc57612afb61242e565b5b612b0887828801612a63565b91505092959194509250565b60008060408385031215612b2b57612b2a612429565b5b6000612b3985828601612676565b9250506020612b4a85828601612676565b9150509250929050565b60006040820190508181036000830152612b6e8185612545565b9050612b7d60208301846124c4565b9392505050565b7f4e487b7100000000000000000000000000000000000000000000000000000000600052602260045260246000fd5b60006002820490506001821680612bcb57607f821691505b602082108103612bde57612bdd612b84565b5b50919050565b7f4552433732313a20617070726f76616c20746f2063757272656e74206f776e6560008201527f7200000000000000000000000000000000000000000000000000000000000000602082015250565b6000612c406021836124f9565b9150612c4b82612be4565b604082019050919050565b60006020820190508181036000830152612c6f81612c33565b9050919050565b7f4552433732313a20617070726f76652063616c6c6572206973206e6f7420746f60008201527f6b656e206f776e6572206f7220617070726f76656420666f7220616c6c000000602082015250565b6000612cd2603d836124f9565b9150612cdd82612c76565b604082019050919050565b60006020820190508181036000830152612d0181612cc5565b9050919050565b7f4552433732313a2063616c6c6572206973206e6f7420746f6b656e206f776e6560008201527f72206f7220617070726f76656400000000000000000000000000000000000000602082015250565b6000612d64602d836124f9565b9150612d6f82612d08565b604082019050919050565b60006020820190508181036000830152612d9381612d57565b9050919050565b7f455243373231456e756d657261626c653a206f776e657220696e646578206f7560008201527f74206f6620626f756e6473000000000000000000000000000000000000000000602082015250565b6000612df6602b836124f9565b9150612e0182612d9a565b604082019050919050565b60006020820190508181036000830152612e2581612de9565b9050919050565b7f455243373231456e756d657261626c653a20676c6f62616c20696e646578206f60008201527f7574206f6620626f756e64730000000000000000000000000000000000000000602082015250565b6000612e88602c836124f9565b9150612e9382612e2c565b604082019050919050565b60006020820190508181036000830152612eb781612e7b565b9050919050565b7f4e487b7100000000000000000000000000000000000000000000000000000000600052603260045260246000fd5b7f4552433732313a20696e76616c696420746f6b656e2049440000000000000000600082015250565b6000612f236018836124f9565b9150612f2e82612eed565b602082019050919050565b60006020820190508181036000830152612f5281612f16565b9050919050565b7f4e487b7100000000000000000000000000000000000000000000000000000000600052601160045260246000fd5b6000612f93826125a0565b9150612f9e836125a0565b9250828201905080821115612fb657612fb5612f59565b5b92915050565b7f4552433732313a2061646472657373207a65726f206973206e6f74206120766160008201527f6c6964206f776e65720000000000000000000000000000000000000000000000602082015250565b60006130186029836124f9565b915061302382612fbc565b604082019050919050565b600060208201905081810360008301526130478161300b565b9050919050565b7f6e6f207065726d697373696f6e00000000000000000000000000000000000000600082015250565b6000613084600d836124f9565b915061308f8261304e565b602082019050919050565b600060208201905081810360008301526130b381613077565b9050919050565b7f4552433732313a207472616e736665722066726f6d20696e636f72726563742060008201527f6f776e6572000000000000000000000000000000000000000000000000000000602082015250565b60006131166025836124f9565b9150613121826130ba565b604082019050919050565b6000602082019050818103600083015261314581613109565b9050919050565b7f4552433732313a207472616e7366657220746f20746865207a65726f2061646460008201527f7265737300000000000000000000000000000000000000000000000000000000602082015250565b60006131a86024836124f9565b91506131b38261314c565b604082019050919050565b600060208201905081810360008301526131d78161319b565b9050919050565b7f4552433732313a20617070726f766520746f2063616c6c657200000000000000600082015250565b60006132146019836124f9565b915061321f826131de565b602082019050919050565b6000602082019050818103600083015261324381613207565b9050919050565b7f45524337323155524953746f726167653a2055524920736574206f66206e6f6e60008201527f6578697374656e7420746f6b656e000000000000000000000000000000000000602082015250565b60006132a6602e836124f9565b91506132b18261324a565b604082019050919050565b600060208201905081810360008301526132d581613299565b9050919050565b60008190508160005260206000209050919050565b60006020601f8301049050919050565b600082821b905092915050565b60006008830261333e7fffffffffffffffffffffffffffffffffffffffffffffffffffffffffffffffff82613301565b6133488683613301565b95508019841693508086168417925050509392505050565b6000819050919050565b600061338561338061337b846125a0565b613360565b6125a0565b9050919050565b6000819050919050565b61339f8361336a565b6133b36133ab8261338c565b84845461330e565b825550505050565b600090565b6133c86133bb565b6133d3818484613396565b505050565b5b818110156133f7576133ec6000826133c0565b6001810190506133d9565b5050565b601f82111561343c5761340d816132dc565b613416846132f1565b81016020851015613425578190505b613439613431856132f1565b8301826133d8565b50505b505050565b600082821c905092915050565b600061345f60001984600802613441565b1980831691505092915050565b6000613478838361344e565b9150826002028217905092915050565b613491826124ee565b67ffffffffffffffff8111156134aa576134a9612869565b5b6134b48254612bb3565b6134bf8282856133fb565b600060209050601f8311600181146134f257600084156134e0578287015190505b6134ea858261346c565b865550613552565b601f198416613500866132dc565b60005b8281101561352857848901518255600182019150602085019450602081019050613503565b868310156135455784890151613541601f89168261344e565b8355505b6001600288020188555050505b505050505050565b7f4552433732313a207472616e7366657220746f206e6f6e20455243373231526560008201527f63656976657220696d706c656d656e7465720000000000000000000000000000602082015250565b60006135b66032836124f9565b91506135c18261355a565b604082019050919050565b600060208201905081810360008301526135e5816135a9565b9050919050565b600081905092915050565b6000613602826124ee565b61360c81856135ec565b935061361c81856020860161250a565b80840191505092915050565b600061363482856135f7565b915061364082846135f7565b91508190509392505050565b600081519050919050565b600082825260208201905092915050565b60006136738261364c565b61367d8185613657565b935061368d81856020860161250a565b61369681612534565b840191505092915050565b60006080820190506136b66000830187612635565b6136c36020830186612635565b6136d060408301856126cb565b81810360608301526136e28184613668565b905095945050505050565b6000815190506136fc8161245f565b92915050565b60006020828403121561371857613717612429565b5b6000613726848285016136ed565b91505092915050565b7f455243373231456e756d657261626c653a20636f6e736563757469766520747260008201527f616e7366657273206e6f7420737570706f727465640000000000000000000000602082015250565b600061378b6035836124f9565b91506137968261372f565b604082019050919050565b600060208201905081810360008301526137ba8161377e565b9050919050565b7f4552433732313a206d696e7420746f20746865207a65726f2061646472657373600082015250565b60006137f76020836124f9565b9150613802826137c1565b602082019050919050565b60006020820190508181036000830152613826816137ea565b9050919050565b7f4552433732313a20746f6b656e20616c7265616479206d696e74656400000000600082015250565b6000613863601c836124f9565b915061386e8261382d565b602082019050919050565b6000602082019050818103600083015261389281613856565b9050919050565b7f4e487b7100000000000000000000000000000000000000000000000000000000600052601260045260246000fd5b60006138d3826125a0565b91506138de836125a0565b92508282039050818111156138f6576138f5612f59565b5b92915050565b7f4e487b7100000000000000000000000000000000000000000000000000000000600052603160045260246000fdfea264697066735822122046296105c2a47e49a8c95ddcadb50c6dca75affc0ba0dcd86e37d790ebbbaeb664736f6c63430008110033",
  "linkReferences": {},
  "deployedLinkReferences": {}
}